:1080400000000120CD150300F5150300F71503000E
:10805000F9150300FB150300FD15030000000000E7
:1080600000000000000000000000000069A6010000
:10807000011603000000000089A601000516030098
:1080800051180300B93B010007160300593B0100DA
:108090000716030007160300111C0300012103004B
:1080A000071603000716030007160300D13B010063
:1080B00007160300C53B010007160300071603005F
:1080C000DD3B0100E9A601000716030007160300C7
:1080D0000716030007160300071603000716030020
:1080E0000716030007160300071603000716030010
:1080F0000716030007160300000000000000000040
:1081000007160300071603000716030007160300EF
:1081100007160300071603000716030000000000FF
:10812000000000000000000000000000000000004F
:10813000000000000000000000000000000000003F
:10814000000000000000000000000000000000002F
:10815000000000000000000000000000000000001F
:10816000000000000000000000000000000000000F
:1081700000000000000000000000000000000000FF
:1081800000000000000000000000000000000000EF
:1081900000000000000000000000000000000000DF
:1081A00000000000000000000000000000000000CF
:1081B00000000000000000000000000000000000BF
:1081C00000000000000000000000000000000000AF
:1081D000000000000000000000000000000000009F
:1081E000000000000000000000000000000000008F
:1081F000000000000000000000000000000000007F
:10820000000000000000000000000000000000006E
:10821000000000000000000000000000000000005E
:10822000000000000000000000000000000000004E
:10823000000000000000000000000000000000003E
:108240000348044B834202D0034B03B118477047E5
:1082500044030020440300200000000005480649B4
:108260000B1AD90F01EBA301491002D0034B03B144
:10827000184770474403002044030020000000001A
:1082800010B5064C237843B9FFF7DAFF044B13B15E
:108290000448AFF300800123237010BD4803002081
:1082A000000000004C63060008B5044B1BB10449F4
:1082B0000448AFF30080BDE80840CFE700000000AD
:1082C0004C0300204C630600A3F5803A704700BFC2
:1082D000154B002B08BF114B9D46FFF7F5FF002102
:1082E0008B460F461148124A121A47F0B9FF0C4B41
:1082F000002B00D098470B4B002B00D09847002054
:10830000002104000D000B4847F038FC47F07CFCCE
:10831000200029000BF0C8FC47F04CFC00000800CE
:1083200000000000000000000000012048030020C1
:10833000FCD50020DDFB0400014B9878704700BF9E
:1083400064030020014B5878704700BF640300208D
:108350000048704704000020034B1868B0F5803FC8
:1083600034BF002001207047640300201FB50A4B72
:1083700002461860FFF7E0FF0390FFF7E3FFD2B279
:10838000CDE90002039B054A05480C2148F00CFE8C
:1083900005B05DF804FB00BF64030020EC56050047
:1083A0000400002038B504461098A360049BE360E5
:1083B000059B2361069B6361079BE361089B236226
:1083C000099B63620A9BA3620B9BE3620C9B236382
:1083D0000D9B63630E9BA3630F9B0025C4E90F30C5
:1083E000C4E90012A561024604F1480012F0BFFA88
:1083F0000123C4F8BC3F04F58053C4F8C45FC4F83B
:10840000C85FC4F8CC5FC4F8D05FC4F8D45FC4F8C8
:10841000D85FDD609D63204638BDC0F8D81FC0F826
:10842000DC2F70471FB5124C8DF807106368D0F829
:10843000C00FC3F308039BB1002303AA0DF107018A
:1084400003932AF085FB039B012B07D14FF0805348
:10845000636040BFBFF34F8FBFF36F8F04B010BD99
:108460004FF0FF320DF107012AF07EF9F6E700BF69
:1084700000ED00E00139052912D8DFE801F007031B
:10848000090B0D0F0221483012F0F5BA0121FAE76D
:108490000321F8E70421F6E70521F4E70621F2E7D6
:1084A0007047806908B113F05BB97047816170470C
:1084B000436A806B996A4B1E032B28BF03210DF082
:1084C00077BE10B50446806B0DF09EFE2046FFF788
:1084D000EFFFA06A11F024FD2068BDE810400BF00A
:1084E000F7BE10B50446006810B103689B68984752
:1084F000204610BD036801601BB11A6818469268D7
:10850000104770472DE9F04F00F1480804468DB040
:10851000404617460E4612F0DDFB2046FFF7C8FF27
:1085200004F6C475A06A11F062FD28460021FFF729
:10853000E1FF39462046FFF79DFF222E00F29E8084
:10854000DFE816F03600230036006F0168005F0098
:10855000A1007D00B900C3008E016501C301B00117
:10856000BB01A501DB01CF019B01E8013600F5014C
:108570007200D800F000FB0009011D011301280161
:10858000320140014A015A015400626AA36807920D
:10859000D4E903895820069347F0AAF8CDE9008969
:1085A000DDE906322146074603F00AFB394675E14C
:1085B000E3682169A2680793D4E90898E369D4F8CD
:1085C0002CA0D4F840B009912C200892069347F0D3
:1085D0008FF8069B0093CDE903ABCDE90189DDE976
:1085E00007320999074600F031FCDFE7D4F8E01FB5
:1085F00006910C2047F07CF80699074605F022FE0C
:10860000D4E7242047F074F804F14401074603F04E
:108610004FF9CBE7E1680691242047F069F8069905
:10862000074602F065F9C1E7E3680C20D9690691B5
:1086300047F05EF80699074605F0ACFDB6E7E2693B
:10864000D4F81890D4F828A00692402047F050F8AB
:108650004FF00008CDE90198069ACDF800A009F581
:1086600043732146074603F059FECDF82C80284677
:108670003946FFF73FFF0BA8FFF733FFC4F8C86F79
:108680000DB0BDE8F08FE269D4F81880D4F82890D6
:108690000692402047F02CF80123CDE90183069A89
:1086A000CDF8009008F543732146074603F036FEE7
:1086B00000230B93DBE7216B0691B02047F018F8FD
:1086C0000699074605F078FB70E7636A616B1A7CD0
:1086D000A369D4F828800891BC200792069347F03C
:1086E00007F8DDE906320899CDF80080074605F065
:1086F0008BFF5BE7D4E909A9A2682369D4F8388025
:10870000D4F80CB007926420069346F0F1FFCDE94F
:1087100002ABCDE90089DDE906322146074606F0C5
:10872000A3FC43E7626A06925C2046F0E1FF069AEA
:108730002146074606F00CFF38E7626A236C079271
:108740009020069346F0D4FFDDE906322146074625
:1087500007F0BAF82AE7616A0691702046F0C8FF70
:108760000699074607F04CF920E7616A06911C203C
:1087700046F0BEFF0699074607F0E4F916E7626A7D
:108780000692282046F0B4FF069A2146074607F0D5
:1087900009FB0BE7616A0691182046F0A9FF0699CC
:1087A000074607F027FC01E72269636A0792502019
:1087B000069346F09DFFDDE906322146074607F0A5
:1087C000FFFDF3E6616A0691702046F091FF06997D
:1087D000074608F017F9E9E6616AE26AA3690891B9
:1087E00034200792069346F083FFDDE906320899AC
:1087F000074608F061FAD9E6626A0692742046F0EC
:1088000077FF069A2146074608F0A8FBCEE6A16846
:108810000691242046F06CFF0699074604F0EEFF0F
:10882000C4E62269A3686168D4F83880D4F80C9053
:10883000D4F814A0D4F82CB0089294200793069191
:1088400046F056FF0699CDF80080CDE903B1CDE999
:10885000019ADDE907322146074601F0E1FBA5E672
:10886000A169A26B07912C20069246F041FFDDE939
:108870000621074604F0D6FB98E6A16906919420EC
:1088800046F036FF0699074600F0A6FF8EE6A820C0
:1088900046F02EFF069004F06BF806992846FFF785
:1088A00029FEEBE6A26A0692DC2046F021FF069A3A
:1088B0004146074600F0DCFC78E62C2046F018FF25
:1088C0004146074600F0C2FD70E6A1699C2001F513
:1088D0008461069146F00CFF0699074602F03EF9C6
:1088E00064E6A1696C2001F2BC61069146F000FFCC
:1088F0000699074602F06CFC58E6216AA2690791C6
:108900002820069246F0F4FEDDE90621074604F031
:1089100037FA4BE6A16AA26907914020069246F019
:10892000E7FEDDE90621074602F03AFE3EE6E16A8F
:10893000626A07913020069246F0DAFEDDE90621F0
:10894000074605F077F831E6036803F580539A6B24
:108950000AB1013A9A639A6B006803EB820300F54F
:1089600080511B69013B052B9CBF074AD256CB683F
:1089700088BF00220BB1013BCB60CB6800EB8303C7
:10898000D3F8E41FFFF7BEBD0357050030B4D0F89D
:10899000C85F8D4214D000F58053DC68092C06D8DE
:1089A00000EB8404C4F8E45FDC680134DC609C6B99
:1089B000092C05D803EB840422619C6B01349C6371
:1089C00030BCFFF79FBD000037B504460D460022BE
:1089D00001210A2029F05AFEC4F8E05FC4F8C00F54
:1089E00004F1480012F034F8012D0CBF22210221BD
:1089F00000222046FFF7CAFF04F6B8730193002354
:108A000000930849084823464FF448722AF042FD73
:108A1000012805D0042003B0BDE830402BF0C8BFCA
:108A200003B030BDF85605008D8C000073B5D0F84A
:108A3000BC3F0190012B04462BD1D0F8C43F1B79D9
:108A400013B901A8FFF780FF36F08AFF0246D4F879
:108A5000C00F0DF103012AF02FF9012820D19DF854
:108A60000330132B1CD8DFE813F036004C001B003A
:108A70001B008300D200E000F900FC005B006100F5
:108A80000501560017003200800074000A01080139
:108A90000D014FF0FF32DAE7A06B01210DF088FBEA
:108AA000E36B1A7B32B1D4F8C40F197902685569A7
:108AB0001A7AA847D4F8D81F39B1D4F8DC2F204649
:108AC000FFF764FF0023C4F8D83F02B070BD204612
:108AD000FFF7EEFCE4E7A06B0DF0B1FB054630B10B
:108AE000A06B0DF09DFB64202AF0F4FFF3E72068F3
:108AF0000BF024FC0E212046FFF7D3FCC4F8BC5F2A
:108B0000CEE720680BF027FC2046FFF7D1FC0123BD
:108B1000C4F8BC3FC4E708212046FFF7C2FCBFE70A
:108B2000022206212046FFF731FFB9E7D4F8C83FFB
:108B3000082B08D1D4F8C40F05F0B2FA2321A06A9B
:108B400011F016FAACE7012208212046FFF71EFFBC
:108B5000F4E7D4F8C83F092B04D1D4F8C40F05F0CA
:108B600055FC9DE700220921DCE701221621ECE7F4
:108B7000D4F8BC3F012B93D1E16B04F148060B7B89
:108B80000A7A0979304612F085F8E06B13F0CEFED0
:108B90000546002884D0D4F8C40F036829461B6911
:108BA000984780BBD4F8C83F022B19D1033D042D50
:108BB0003FF676AF01A353F825F000BFD78B000036
:108BC000D18B00006F8C0000A18A0000DD8B0000BB
:108BD00001221146A6E706221721A3E700219BE701
:108BE00004F580539A6B03EB8203DB68023B042B92
:108BF0009ABF254AD35605239D427FF451AF01A861
:108C0000FFF7A2FE4CE7304612F064F848E7D4F8CC
:108C1000C40F0368DB689847014600287FF440AF23
:108C2000D4F8C83F022BEAD176E7D4F8C83F022B2C
:108C30003FF436AF072B0AD1012202212046FFF76D
:108C4000A5FE04F5805300229A63DA6028E7172B0B
:108C500001D10522F1E702221146EFE701220321AB
:108C600060E7D4F8C83F063B012B7FF619AF02221C
:108C7000072157E70222042154E71C214CE7002278
:108C8000022162E70F215AE70957050010B5044693
:108C9000FFF717FC2BF052FA0023022219462BF0A3
:108CA00091FB2046FFF7C2FEFBE7C06803681B6824
:108CB0001847704700207047806A03681B6918478F
:108CC000806A0368DB681847084B10B503600446E8
:108CD00035F092FB2CF0F8F92DF094F9A06A10B160
:108CE00003689B689847204610BD00BF18570500D1
:108CF00010B50446FFF7E8FF20462C2146F0E7FCBC
:108D0000204610BD2DE9F0430C4689B0D4E9056733
:108D1000D4E90789E2682369896807910546A0209C
:108D20000692059346F0E4FCCDE90289CDE900679F
:108D3000DDE905320799044608F020FE28462C603C
:108D400009B0BDE8F083F0B50C4687B0D4E90567FB
:108D5000E2682369896805910546B020049203936F
:108D600046F0C6FCCDE90067DDE90332059904460B
:108D700008F00CFB28462C6007B0F0BD2DE9F0434D
:108D80000C4689B0D4E90567D4E90789E26823690C
:108D900089680791054688200692059346F0A8FC4D
:108DA000CDE90289CDE90067DDE90532079904467E
:108DB00009F03AFF28462C6009B0BDE8F0832DE9A0
:108DC000F0430C4689B0D4E90567D4E90889E26824
:108DD0002369896807910546E0200692059346F0CD
:108DE00087FCCDE90289CDE90067DDE90532079905
:108DF000044609F035FA28462C6009B0BDE8F08336
:108E00002DE9F0470C468AB0D4E90567D4E9078913
:108E1000E26823698968D4F824A0099105464FF4D3
:108E200084700892079346F063FCCDE9039ACDE97C
:108E30000178DDE907320999009604460AF050FAF4
:108E400028462C600AB0BDE8F087000038B504461B
:108E5000059D2361049BC4E90535069BE361012060
:108E6000079B20712362089B6362AB7C10482060E3
:108E7000013BC4E9021204F128002146032B13D858
:108E8000DFE803F002090C0FFFF75DFF002385F810
:108E90002D30204638BDFFF771FFF7E7FFF78FFF52
:108EA000F4E7FFF7ADFFF1E7FFF72CFFEEE700BFB8
:108EB00018570500002070470020704708B535F0AE
:108EC0009BFABDE808402CF0FFB8000010B5064B37
:108ED00003600446006936F001FDFFF7EFFF2DF057
:108EE00091F8204610BD00BF3C57050010B5044660
:108EF000FFF7ECFF2046942146F0E9FB204610BD29
:108F000030B587B04569C168044668460DF014F96C
:108F1000009928463CF0FAFF684646F0E1FC04F16F
:108F2000380007B0BDE8304006F018B82DE9F0432E
:108F3000044685B00127077104F11C087A48A36034
:108F40000F9BE36004F13809206040460E46109DF7
:108F500005F0ECFEDDE90D12484605F0B5FF0C9B6F
:108F6000484683F82D6005F0B7FFD4F85890FFF716
:108F7000A5FF00266FF0070303220146009648462E
:108F80002CF0B6FBFFF79AFF31463DF0C9F83946A1
:108F900060613CF0ACFA314633463A46606900966F
:108FA0002CF0A6FB404605F0C5FEDFF89481DFF803
:108FB00094E1314604F17C093A462E1FA5F1080CD4
:108FC00056F8327001F1160304EB8303002F40F0D2
:108FD000A780C3F804E04B1CDBB2062A49F8047BE7
:108FE0001F4640F0928004EB8303504ADA65FFF796
:108FF00065FF002139F0A6F904F15C01A06138F0A9
:10900000F9FFA76935F0F8F935F0FCF9064635F0B7
:10901000F3F935F007FAA6F110013C3802B209B2B3
:1090200038462CF013FD0A2600231A461946A0697B
:1090300000962CF05DFB01221146A06914232DF04F
:1090400064FDA0697F232C2201212DF093FD384B74
:10905000A0691B88292201212DF071FDA0697F23C1
:1090600042F22C0201212DF085FD324BA0691B88B4
:1090700042F2290201212DF062FD0023A069039034
:10908000194610222DF041FD0023194603981122A4
:109090002DF03BFD00231946039812222DF035FDDB
:1090A00000231946039813222DF02FFD3346A069A3
:1090B000142200212DF029FD00260435B1B2A0694B
:1090C00003914FF4807239F0D0F955F83630039996
:1090D0001BB9A069202239F0C8F90136062EEDD15E
:1090E000A36915495C64A0692CF052F92346032258
:1090F00041F28831114836F0ABFB20612046FFF782
:10910000FFFE204605B0BDE8F083032A01BF8B1C9B
:1091100004EB8707DBB2C7F85C80013219464FE7E2
:109120005CF83200586056E73C57050071CC0500EA
:1091300030570500325705006D910000499100003D
:10914000CC570500615C0600C068FFF7D9BE10B5BA
:1091500083698B42044608D100EB82038068D96F93
:109160000122FFF75AF90023237110BD102938B5E9
:10917000044609D1456C2CF05BF92146026828466B
:10918000BDE83840FFF7E3BF38BD000010B5054B20
:109190000360044635F030F92BF096FF2CF032FFD7
:1091A000204610BD6457050010B50446FFF7EEFFDA
:1091B0002046DC2146F08BFA204610BD13B54B1F2C
:1091C00004460431ADF80030ADF80410531F806838
:1091D000ADF8023004320021ADF8062011F04BFC4E
:1091E000A06804F11002694611F071FC012002B080
:1091F00010BD0000062908B535D190F8DA300133EA
:1092000003F0070380F8DA30013B062B05D8DFE8CE
:1092100003F01316191B1E21240041F6F873A0F861
:10922000D83000F1D80100F110038B4217D0B0F80C
:10923000D82023F8022BF8E748F20503EFE70B4BA1
:109240001B88ECE7F823EAE7084B5B88E7E7074B66
:109250009B88E4E74FF4F853E1E70023DFE7C068B9
:10926000232110F085FE012008BD00BF54570500E2
:10927000012303710B4B03600B4B1B88A0F8D83004
:109280000223C0E9021280F8DA3000F1D80100F1BF
:109290001003994204D0B0F8D82023F8022BF8E745
:1092A000704700BF64570500545705000120704700
:1092B0001E2A70B50446154603D80122E069002134
:1092C0000FE035F099F835F0ADF81E38A8420DDC06
:1092D000E66935F091F835F0A5F83D3802B2002185
:1092E00030462CF0C2F9E581012070BDA5F11E02C7
:1092F00012B2E3E708B535F07FF8BDE808402BF07F
:10930000E3BE000010B5064B03600446806A36F0E9
:10931000E5FAFFF7EFFF2CF075FE204610BD00BF09
:109320009057050010B50446FFF7ECFF20462C21AE
:1093300046F0CDF9204610BD70B5038A90F914109F
:1093400090F915201944438A1A44044609B212B20E
:1093500001824282006A2CF088F9B4F91250012D82
:1093600049DC637D5B426375B4F9105035F044F815
:1093700035F048F8237BC01A0138854212DB237D83
:109380005B42237547F0C2FB032390FBF3F303EB2F
:109390004303C31A607D013B03445BB2052B34DDFC
:1093A0000523637594F9141000291DDAB4F910002F
:1093B000042819DC227B93105B42984229DBE38965
:1093C000B4F9125003F11E00A0EB920085424FEA5F
:1093D000920609DC1E3B9B1A33449D4204DBE38A60
:1093E000494221750133E382E28AA0691649BDE84A
:1093F00070403CF0FDBD34F0FFFF35F013F8237BE7
:10940000C01A02388542ACDAAEE75A1DB8BFFB235A
:10941000C7E76FF0010353439842E5DC34F0ECFFFB
:1094200034F0F0FF237BC01A00EBD0704010208294
:1094300034F0E2FF34F0F6FF237BC01A00EBD0706B
:10944000401060820023CEE77C570500564B2DE983
:10945000F34103601023012603731E238160C3813F
:109460000671044634F0C8FF34F0CCFF237BC01AE9
:1094700000EBD0703041208234F0BEFF34F0D2FFD8
:10948000237BC01A00EBD07040F20233304163619D
:109490006082FFF72FFF00212CF034FB606207464B
:1094A00034F0AAFF34F0AEFF054634F0A5FF34F0E7
:1094B000B9FFA919024609B238462CF0C7FA606A0A
:1094C00000224FF0FF312CF0D0F800230025606A15
:1094D000324619462DF019FB606A2B46294629228F
:1094E0002DF02DFB314B606A1F8829463B463922FF
:1094F0002DF025FB334630222946606A2DF005FB0E
:10950000FFF7F8FE29463CF00BFE294BA06148F21C
:109510008E0229462DF048FB2649A0693CF08FFDBC
:10952000D4F81880FFF7E6FE0A23014602220093D2
:1095300040462B462CF0DCF8FFF7DCFE29462CF0E9
:10954000E1FA3B46E061294629222DF0F8FA2B4644
:10955000E069324629462DF0D8FA3C22E069042120
:109560002CF074FAFFF7C6FE29462CF0CBFA3B46E6
:109570002062294629222DF0E2FA206A47F6FF737D
:10958000324629462DF0C1FA227B206A11462CF082
:109590005DFA234603221421074836F059F9A062E8
:1095A000204602B0BDE8F0819057050086570500BF
:1095B0008401002081570500AB8C000008B534F011
:1095C0001BFFBDE808402BF07FBD000010B5084B25
:1095D00003600446D0F8900036F080F90F21A068AF
:1095E00012F0BEF8FFF7EAFF2CF00CFD204610BD8C
:1095F000DC57050010B50446FFF7E8FF204694212C
:1096000046F065F8204610BDF8B5C368012B044646
:1096100023D146692AF01AF92569236F1F49761B61
:1096200004EB830364273044D86178433C23850AE4
:10963000606FB5FBF7F6B6FBF3F203FB126341F282
:109640007072B5FBF2F23CF0D3FCA06F144907FB3B
:109650001652BDE8F8403CF0CBBC022B1CD12AF0DE
:10966000F5F8A369834217D200F58060A06100215C
:10967000606F2CF05FFD48B92021606F2DF028FF4E
:109680002021A06FBDE8F8402DF022BF0021606FBF
:109690002DF01EFF0021F4E7F8BD00BFB85C050007
:1096A000E395050010B54FF0F80304462922D0F8E1
:1096B000800000212DF043FA094BE06F1B8829221E
:1096C00000212DF03CFAD4F8840006493CF0B7FCA8
:1096D000D4F888000449BDE810403CF0B0BC00BF9D
:1096E000CE570500A8570500AC57050013B5044632
:1096F0000021406F2DF0ECFEA06F00212DF0E8FE60
:10970000124BE06F1B880193292200212DF017FADC
:10971000019BD4F88000292200212DF010FAD4F802
:1097200084000B493CF08BFCD4F8880009493CF0DC
:1097300086FCD4F8800000212DF0CAFED4F8880001
:10974000002102B0BDE810402DF0C2BED057050088
:10975000B0570500B457050010B504462021406FEE
:109760002DF0B6FEA06F20212DF0B2FE144BE06F5D
:109770001B88292200212DF0E2F9606F11493CF08D
:109780005EFCA06F10493CF05AFCD4F88C000F49E5
:109790003CF055FCD4F884000D493CF050FCD4F862
:1097A00088000C493CF04BFCD4F8800020212DF0BF
:1097B0008FFED4F888002021BDE810402DF088BE2F
:1097C000CE5705001C7305008357050071CC0500BA
:1097D000A8570500B4570500F7B5674B036000258F
:1097E0000127C0E9055507718160C560056704461A
:1097F000FFF7E4FE294638F017FAE0674464E06FAB
:109800005E492BF0C5FDE06F502273212CF01EF94C
:10981000E66FFFF7D3FE2B46062201460095304641
:109820002BF066FF2946E06F3CF07AFCC4F8840018
:10983000FFF7C4FE294638F0F7F9C4F88000446405
:10984000D4F880004E492BF0A3FDD4F880005022BC
:1098500073212CF0FBF8D4F88060FFF7AFFE2B46A5
:1098600004220146009530462BF042FF2946D4F8E9
:1098700080003CF055FC2021C4F88800D4F880001A
:109880002DF026FED4F8880020212DF021FEFFF7D0
:1098900095FE29463CF044FC3A4BC4F88C001E88E7
:1098A00048F28902334629462DF049F9D4F88C0054
:1098B00035493CF0C4FBD4F88C0039463CF0DAFB67
:1098C000D4F88C0039463BF012FED4F88C00F0211D
:1098D0002CF005F9D4F88C70FFF770FE6FF04F0391
:1098E00005220146009338462B462BF001FFFFF777
:1098F00065FE29463CF014FC2449A0673CF09FFB20
:10990000A06F334629464AF289022DF018F92B46FA
:10991000D4F88C10A06F00950A222BF0E9FEFFF717
:109920004DFE29463CF0FCFB194B606748F28E0265
:1099300029462DF039F9606F16493CF080FB606FC5
:10994000334629464AF289022DF0F9F8D4E91D017F
:109950002B460A2200952BF0CBFE2046FFF7FCFE9B
:109960002346032214210C4835F072FFC4F89000FE
:10997000204603B0F0BD00BFDC570500279A000069
:10998000DD9A0000D2570500CC570500835705002B
:10999000B80100201C730500AB8C000010B5044614
:1099A000FFF7DAFE0023E3606361236710BD10B5A3
:1099B0000446FFF79BFE29F049FF01232061E36085
:1099C000A0681021BDE8104011F0CABE10B50446D1
:1099D000FFF768FE00232361236F04EB8303DB6939
:1099E000636129F033FF022300F58060A061E3602A
:1099F000A0680F21BDE8104011F0B2BE10B5C468D8
:109A0000012C03D1FFF7E2FF204610BD0020FCE748
:109A1000C36833F0020201D1FFF7C9BF012B01D1A6
:109A2000FFF7D4BF7047062902D1406CFFF7F0BFA3
:109A3000704700002DE9F041C368012B86B0044651
:109A40003BD12349D0F88C00224FDFF88C803CF0CA
:109A50005DFA236F0133142BA8BF1423236704F18D
:109A60001806023B226F9A422EDD002B03F10105FE
:109A700008DA4246D4F88C004FF6FF713CF084FAC5
:109A80002B46EFE756F8253064214B439B0AB3FB86
:109A9000F1F201FB123101913C21B2FBF1F001FB2B
:109AA00010220092394641F2707202A8B3FBF2F321
:109AB0002A4647F0D9FA02AADCE7022B04D106B005
:109AC000BDE8F041FFF76ABF06B0BDE8F08100BF16
:109AD00071CC0500B8570500CC570500062902D106
:109AE000406CFFF7A7BF704737B504460846002112
:109AF0003BF078FA0025206011493BF0B8F92B467D
:109B000048F2A902206829462DF019F82946206854
:109B10002BF0F8FF082160602BF0E1FF6FF00103EC
:109B200060680093294606222BF0E2FD60682B4610
:109B30000122294603B0BDE830402CF0E6BF00BF4B
:109B4000F85705000068704710B5C1EBC101044625
:109B5000642340684900B1FBF3F109B22BF0C6FF62
:109B60006068BDE810402BF05DBF70B504460D463F
:109B70000B46006848F2A90200212CF0E0FF2068A3
:109B8000FF2348F2AD0200212CF0F4FF60682B4661
:109B90002922BDE8704000212CF0D1BF034A044BBC
:109BA000002814BF10461846704700BFF457050040
:109BB00071CC0500034A044B00280CBF1046184620
:109BC000704700BF71CC050034580500034A044BB0
:109BD000002814BF10461846704700BF38580500CB
:109BE00071CC050080688B6898422CBF0020012052
:109BF000704708B534F000FCBDE808402BF064BAAB
:109C00000346084611461847012A02D10160002088
:109C10007047022A04BF0B680360F8E7012A02D1EB
:109C2000016000207047022A04BF0B680360F8E758
:109C3000012A02D1016000207047022A04BF0B688C
:109C40000360F8E7012A02D1016000207047022A70
:109C500004BF0B680360F8E7012A02D1016000200D
:109C60007047022A04BF0B680360F8E7F7B50446A3
:109C700028200E461746019345F03AFD019BFAB2A3
:109C8000F1B2054600F0FCFD2046256003B0F0BDB2
:109C900038B5054600F15004AC4209D054F8083CF0
:109CA000103C002BF8D00322214620469847F3E7CA
:109CB000204638BD70B588B00646FFF79AFF0021F0
:109CC0003CF02EFA012104463CF016FAFEF740FB68
:109CD000134B0393134B02930025134B0490012263
:109CE000019320460B23114900953CF081F9012195
:109CF00020463BF0FCFBFFF77CFF2B4601462A4643
:109D0000204600952BF0F4FC234607A8052229469F
:109D1000FFF7ACFF079B3360304608B070BD00BF53
:109D2000B6580500BF580500CB5805003C58050043
:109D300010B504460968FFF7BDFF204610BD0000BE
:109D40002DE9F04F0B699DB01B791593CB691B680A
:109D5000082B96BF414ADFF818A152F823A0CB6820
:109D60003F4A9B6BB3FBF2F702FB17334FF4616280
:109D7000B3FBF2F802FB18333C22B3FBF2F902FB0F
:109D800019330C4614930646FFF733FF00213CF0CD
:109D9000C7F9012105463CF0AFF9E16860690B693C
:109DA0004A6991F800B00133DBB218930B7B16932C
:109DB0000B7A13930B792169179302F26C724B881B
:109DC000129392B219920CF06DFA236ADFF8A4E0B4
:109DD000646AD3F814C0CDF840E094F807E0CDF8F9
:109DE0003CE0BCF1020F94F806E098BF1D49CDF8A5
:109DF00038E0647994BF51F82C101B49CDF80CB0B1
:109E0000CDE90C1412990991159908911499CDE98D
:109E10000691179902911399019116990091DDE924
:109E20001832CDE90A0A11492846CDE904783CF0F8
:109E3000DFF8FFF7DEFE0023014600931A462846AE
:109E40002BF056FC2B461BA805220121FFF70EFF25
:109E50001B9B336030461DB0BDE8F08F845B05006E
:109E600080510100A85B0500D4580500D8580500B2
:109E7000D6580500C459050010B504460968FFF717
:109E80005FFF204610BD000070B592B005460BA8DC
:109E90000E4635F0A7FBFFF7ACFE00213CF040F981
:109EA000012104463CF028F9B1690E980B7D4A7DEA
:109EB00008909DF845000790109806909DF8440082
:109EC00005900D9E0B98801B0490087C0390487CA5
:109ED0000290887C0190C97C009120460B493CF09F
:109EE00087F8FFF786FE0023014600931A462046B6
:109EF0002BF0FEFB23460AA805220221FFF7B6FE3F
:109F00000A9B2B60284612B070BD00BFCD590500DA
:109F100010B504460968FFF7B7FF204610BD0000E2
:109F200030B585B00546FFF764FE00213CF0F8F837
:109F3000012104463CF0E0F820460D493CF07FF852
:109F4000012120463BF0D3FAFFF753FE00230146E0
:109F500000931A4620462BF0CBFB234603A805228C
:109F60000421FFF783FE039B2B60284605B030BD1C
:109F7000685A050010B504460968FFF7D1FF20466E
:109F800010BD10B50446006810B103689B6898477F
:109F9000204610BD38B50546084B45F8683B0446D9
:109FA000FFF727FE2CF02EF82846FFF7EAFF04F112
:109FB0001000FFF76DFE204638BD00BF6C5B05004A
:109FC00010B50446FFF7E6FF20466C2145F07FFB05
:109FD000204610BD38B50546064B45F8283B0446DB
:109FE000FFF707FE2CF00EF82846FFF7D3FF2046B8
:109FF00038BD00BFC05B050010B50446FFF7EAFF9F
:10A000002046942145F063FB204610BD8A6810B5B8
:10A0100004460AB945F0A2FBCB689847204610BD1C
:10A020002DE9F04F044695B023611E9B63611F9B91
:10A03000A361209BE361219B2362229B6362294BE6
:10A040000393294B0293294B0793294B0693294BE2
:10A050000B93294B0A93294B0F93294B0E93294BB2
:10A060001393294B294D12930120294B25604FF062
:10A07000000804F138076E46C4E90212207100940A
:10A08000049408940C94109484F82C0004F1280A89
:10A09000A3623D46216384F8348004F1880BB14605
:10A0A000B368C5F808803BB102223146284698477C
:10A0B000F368EB60B368AB6010355D4506F11006E0
:10A0C000EED10023C4F8883084F88C3039460AF188
:10A0D0006800FFF79BFF4846FFF7DAFD204615B002
:10A0E000BDE8F08F319D0000599C0000799E000072
:10A0F000459C0000119F0000319C000041A8000019
:10A100001D9C0000759F0000099C0000C05B0500BD
:10A110006C5B050073B5056E0446002D3BD1042928
:10A1200027D0052940F0918090F86400F8B104F13F
:10A13000680629463046FEF7DDF9A0680221FEF7E1
:10A1400099F994F86430013BDBB204F1100101EBA2
:10A15000031184F8643001A8FFF758FF01990195B5
:10A160003046FEF7C7F901A8FFF70BFF012002B048
:10A1700070BD90F86430032BF8D800F168062946CA
:10A180003046FEF7B7F9A0680121FEF773F994F89D
:10A1900064300133D8E7012D34D1022920D00329BE
:10A1A00053D190F864000028E1D004F16806002142
:10A1B0003046FEF79FF9A0680021FEF75BF994F89E
:10A1C0006430013BDBB204F1100101EB031184F8B0
:10A1D000643001A8FFF71AFF002301990193BFE73C
:10A1E00090F86430032BC1D800F168060021304696
:10A1F000FEF780F9A0680021FEF73CF994F864307E
:10A200000133DFE7062920D190F86430032B9ABF91
:10A210000133DBB2002300F1680580F864300021CF
:10A220002846FEF767F9A0680021FEF723F994F8A5
:10A23000641004F1100303EB011101A8FFF7E6FE1F
:10A2400000230199019328468BE700208FE708B58A
:10A250002830FFF75FFF08BDF0B5054606460F46FC
:10A260000FCD8BB001AC0FC40FCD0FC42B68236092
:10A27000243E314601A8B84706F12405243E50B1DA
:10A2800006F124050FCD06F148040FC40FCD0FC40D
:10A290002B682360EDE701AC0FCC0FC50FCC0FC5C9
:10A2A00023682B600BB0F0BD2DE9F04788428AB0DF
:10A2B00006460F4690462BD000F1240ABA4527D017
:10A2C000324651464046FFF79BFC0AF12409D0B1C3
:10A2D00055460FCD01AC0FC40FCD0FC456452B68AA
:10A2E000236006D0AAEB0602314606F1240045F0B1
:10A2F0003BFF01AD0FCD34460FC40FCD0FC42B680B
:10A300002360CA46DAE741465046FFF7A5FFF8E763
:10A310000AB0BDE8F08782B02DE9F04F8BB002F1B2
:10A32000FF3A0AEBDA7ADDF878901593064688460C
:10A3300014464FEA6A0A0D464FF0240BAA451BDD6E
:10A340006F1C7F000BFB07F1A1F124023244314462
:10A350004846FFF755FC00B1013F0BFB076CBCE81A
:10A360000F000BFB05650FC5BCE80F000FC5DCF83F
:10A3700000302B603D46E1E7E30714D4023C04EBD8
:10A38000D474B5EB640F0ED16F1C24237F0003FB44
:10A390000764243C03FB05650FCC0FC50FCC0FC52C
:10A3A00023682B607D1E15AF0FCF01AC0FC40FCFFC
:10A3B0000FC43B6823606F1E07EBD7777F104FF009
:10A3C000240AA8450AFB056411DA0AFB076501A9FE
:10A3D0002846C84758B10FCD0FC40FCD0FC42B6806
:10A3E00023607B1E03EBD3733D465F10E9E701ADAD
:10A3F0000FCD0FC40FCD0FC42B6823600BB0BDE889
:10A40000F04F02B070470000F0B5164607469E4672
:10A410008C4614460FCE95B00BAD0FC50FCE0FC5B1
:10A4200033682B603D460FCD0FC40FCD0FC42B6892
:10A430002360DEF8003008930CAD0FCD6C460FC4DE
:10A4400095E80F0084E80F00ACEB070C054A0B9B66
:10A450004FEAAC0C02FB0CF200213846FFF75BFF21
:10A4600015B0F0BD398EE3382DE9F04FA1EB0008AF
:10A4700097B0B8F1240F0746894692460B9325DD25
:10A480001D4B4FEAA80803FB08F8A8F1020606EBEB
:10A49000D67676104FF0240B0BFB06750FCD0DAC66
:10A4A0000FC40FCD0FC42B6823600B9B08930EAD18
:10A4B0000FCD6C460FC495E80F0084E80F004246AC
:10A4C0000D9B31463846FFF726FF86B94C4654456A
:10A4D0000FD20B983A462146FFF792FB28B10BABFF
:10A4E000224649463846FFF78FFF2434EFE7013E06
:10A4F000D2E717B0BDE8F08F398EE338F0B50746E4
:10A500000C4605460FCF8BB001AE0FC60FCF0FC65E
:10A510003F68376026460FCE0FC50FCE0FC5336894
:10A520002B6001AD0FCD0FC40FCD0FC427600BB052
:10A53000F0BD2DE9F041069F0546384616461C46FB
:10A540008846FFF75DFB2246A0B131463846FFF74B
:10A5500057FB28B131462846FFF7D0FFBDE8F08110
:10A56000224641463846FFF74BFB08B12146F2E749
:10A570004146F0E741463846FFF742FB0028F7D155
:10A58000224631463846FFF73BFB0028EED1E1E793
:10A590002DE9F04F054685B00C4617461E4600F1E2
:10A5A00024084FF0240A611BB1F5107F13DDA4F1DC
:10A5B00024039FB933462246214628460396FFF7D7
:10A5C00053FF243C03AB224621462846FFF71CFFDD
:10A5D000631B242BF5DC05B0BDE8F08F8A1016490B
:10A5E00000964A4352100AFB025241462846FFF7A2
:10A5F000A0FF013FC346A1462A4659463046FFF711
:10A60000FFFAB0B9A9F124094A4629463046FFF7B6
:10A61000F7FA0028F6D1CB4507D3214633463A4610
:10A620005846FFF7B5FF5C46BDE749465846FFF779
:10A6300065FF0BF1240BDFE7398EE3382DE9F04F8E
:10A64000D7B00746FFF7D5FA00213EF0A1F8042164
:10A6500004463EF059F80A2120463DF0B1FF0023A0
:10A660001022012120462CF050FA00231122012152
:10A6700020462CF04AFA00231222012120462CF019
:10A6800044FA00231322012120462CF03EFA624BAB
:10A6900039221B88012120462CF051FA00225F4B01
:10A6A000114620463DF0DAFF1E22002120463EF0F2
:10A6B000E7F85B4B0122002120463DF0CFFF1E2230
:10A6C000012120463EF0DCF8564B022200212046B4
:10A6D0003DF0C4FF5022022120463EF0D1F8524BFB
:10A6E0000322002120463DF0B9FF05AD5A22032187
:10A6F00020463EF0C5F800220921284629F030FB0B
:10A700002426464305EB0609A945804623D0474B3E
:10A71000B2105A43B2FA82F2C2F11F025200444B05
:10A7200049462846FFF734FFB6F5107F404A0EDD54
:10A7300095A92846FFF7B8FDDFF8F4A095AEB1451E
:10A7400009D030465146FFF787FD2436F7E74946E2
:10A750002846FFF7A9FD08F10103DFF8DCA0DFF8C8
:10A76000DCB001930126019BB34249D00A2E47D0A9
:10A770004FF00009AA682F49CDF80C9003A81FFAE2
:10A7800086F8ADF810908DF8129046F06DFC03AB92
:10A790004A46414620463DF061FF2B7B042B2DD8D5
:10A7A000DFE803F0030326282A0052238DF80C303B
:10A7B00000238DF80D30012203AB414620463DF0C9
:10A7C0004DFF41466B68022220463DF047FF2A8C30
:10A7D000132A94BF5946514603A846F045FC03ABE3
:10A7E0000322414620463DF039FF01362435BAE7C1
:10A7F0004223DBE75323D9E74423D7E74923D5E7AF
:10A80000234603A805220321FFF730FA039B3B6090
:10A81000384657B0BDE8F08FB45B05002A5C0500F0
:10A820000D5B05000F5B0500145B0500398EE338F6
:10A83000E59B0000195B0500655A05001D5B0500DE
:10A8400010B504460968FFF7F9FE204610BD000068
:10A8500010B5054B0360044633F0CEFD2AF034FCFE
:10A860002BF0D0FB204610BDE05B050010B5044680
:10A87000FFF7EEFF2046282144F029FF204610BDB7
:10A8800038B504460120207104F10C05054820600C
:10A89000A360284604F04AFA284604F04BFA204602
:10A8A00038BD00BFE05B05000120704708B533F0FC
:10A8B000A3FDBDE808402AF007BC000010B5064B18
:10A8C00003600446C06935F009F8FFF7EFFF2BF08D
:10A8D00099FB204610BD00BF445C050010B504463E
:10A8E000FFF7ECFF2046242144F0F1FE204610BD86
:10A8F00073B52D4B036000250126067181608561CB
:10A900000446FFF7D3FF29463BF00AFC2749606164
:10A910003BF095FB322302222946606900932B46C7
:10A920002AF0E6FEFFF7C2FF294637F093F81E2211
:10A93000E060C8212BF08AF82B46E06800952A4693
:10A9400029462AF0D5FEE06829464FF47A7237F09E
:10A9500025F92A462946E06837F058F8FFF7A6FFA0
:10A9600029463BF0DDFB124920613BF068FB206982
:10A9700031463BF0C1FB206931462AF0B7FC3C234D
:10A98000D4E9031000930A222B462AF0B1FE234695
:10A9900003221421074834F05BFFE06128F056FFE2
:10A9A0002062204602B070BD445C0500F85B0500E3
:10A9B000085C0500AB8C000038B582680B49546810
:10A9C00005464FF47A730069B4FBF3F39468B4FB63
:10A9D000F3F40A2224B294FBF2F23BF009FBE8689C
:10A9E00021460022BDE8384037F010B8135C05005E
:10A9F000014900693BF023BB195C050010B504490F
:10AA0000044600693BF01BFB28F020FF206210BDCC
:10AA10002C5C050038B58368DD688369022D044627
:10AA200019D0032D1DD0012D0ED0032B1ED028F0E0
:10AA30000DFF236AC01AB0F5704F04D92046FFF706
:10AA4000DDFF0323A36138BD012B18BF8561BDE87D
:10AA50003840FFF7B1BF022BF5D0FFF7C9FFA56162
:10AA6000F1E7032B02D0FFF7C9FFA56128F0EEFE46
:10AA7000236AC01AB0F5A05FE5D900232371E2E78D
:10AA800008B533F0B9FCBDE808402AF01DBB000052
:10AA900010B50E4B03600446D0F8980034F01EFF4A
:10AAA00004F134002EF009FAFFF7EAFF2BF0AAFABE
:10AAB00004F1700044F014FF04F1580044F010FF5A
:10AAC00004F1400044F00CFF204610BD0860050072
:10AAD00010B50446FFF7DCFF20469C2144F0F7FD4B
:10AAE000204610BD023938B50446032933D8DFE8C3
:10AAF00001F02B300214406900212AF030FEA069D9
:10AB000000212AF02CFE206901212AF028FEA068ED
:10AB100001212AF024FE012514E000692BF0DEFA61
:10AB2000054678B1206900212AF019FEA0680021AD
:10AB30002AF015FE606901212AF011FEA0690121A9
:10AB40002AF00DFE284638BD0321E06B0DF0C1FA56
:10AB5000E1E70421F9E70025F4E70000C54B2DE902
:10AB6000F341036000F148030025036400F1600332
:10AB700000F134060127C0E9163500F178030446D8
:10AB8000C0E91C350771C163456480F8485080F8FE
:10AB9000605080F87850C0F88850C0F89050304627
:10ABA0002EF0F2F83946304614222EF0E3F9B24B7B
:10ABB000DFF8F4821A88304629212EF01FFA7F220E
:10ABC0002C2130462EF05EFAFFF75AFF294637F067
:10ABD0002BF860614464606941462AF0D9FB4C223D
:10ABE000606911462AF032FF2B46606900952946BC
:10ABF00004222AF07DFD3246606929462BF060FF71
:10AC0000294660693BF08CFA9C493BF018FA3946BA
:10AC100060692AF0A4FDFFF733FF294637F004F8F6
:10AC2000A0614464A06941462AF0B2FB4C22A069AD
:10AC300011462AF00BFF2B46A069009529460622F3
:10AC40002AF056FD3246A06929462BF039FF2946E5
:10AC5000A0693BF065FA8A493BF0F1F93946A069F1
:10AC60002AF07DFDFFF70CFF294636F0DDFFA060DE
:10AC70004464A06841462AF08BFB4C22A068114630
:10AC80002AF0E4FE2B46A0680095294604222AF00B
:10AC90002FFD3246A06829462BF012FF2946A068F6
:10ACA0003BF03EFA77493BF0CAF9FFF7E9FE294647
:10ACB00036F0BAFF20614464206941462AF068FBFF
:10ACC0004C22206911462AF0C1FE2B4620690095CE
:10ACD000294606222AF00CFD3246206929462BF02F
:10ACE000EFFE294620693BF01BFA67493BF0A7F9C4
:10ACF000FFF7C6FE294636F097FFE0604464E0683F
:10AD000041462AF045FB4C22E06811462AF09EFE9F
:10AD10002B46E0680095294605222AF0E9FC3246D8
:10AD2000E06829462BF0CCFE2946E0683BF0F8F9B4
:10AD3000564960623BF083F9FFF7A2FE29463BF0DB
:10AD4000EFF91426206303213BF094F93A460C23D3
:10AD5000206B009629462AF0CBFC206B4C493BF037
:10AD60006EF90721206B3AF0C2FB276B33F044FBEE
:10AD700033F048FB014638462AF0B1FEFFF780FE6B
:10AD800029463BF0CDF90421E0613BF073F96FF007
:10AD90000C030722E069009329460C232AF0A8FC43
:10ADA0000721E0693AF0A3FBE76933F025FB33F0B4
:10ADB00029FB0C3801B238462AF091FE3549E0698A
:10ADC0003BF03DF9FFF75CFE29463BF0A9F9042171
:10ADD00020623BF04FF90E230722206A0093294698
:10ADE0000C232AF085FC0721206A3AF080FB276AB1
:10ADF00033F002FB33F006FB0C3801B238462AF080
:10AE00006EFE2549206A3BF01AF9FFF739FE294604
:10AE10003AF0E8F80F27A06220493AF028F86FF0DE
:10AE20000E0303222946A06A00972AF061FCFFF76F
:10AE300027FE29463AF0D6F81949E0623AF017F8A9
:10AE4000E06A00976FF02E03032229462AF050FC97
:10AE5000E06B84F83850E0210DF03BF923460322E3
:10AE60003146104834F0F4FCC4F89800204602B093
:10AE7000BDE8F08108600500C25C05005C5C05006F
:10AE8000605C0500645C0500685C0500A85705006F
:10AE90006C5C0500785C0500845C0500D45D0500F1
:10AEA000E05D0500AB8C00009FAF0000F7B5214AC4
:10AEB000D0F8881091420346006B05DD1E4903B0AF
:10AEC000BDE8F0403BF0BBB841F234729142D3F898
:10AED0008C301ADD4FF461643C2693FBF4F591FB52
:10AEE000F4F704FB153304FB1714B4FBF6F4CDE9B7
:10AEF000007493FBF6F3642295FBF2FC02FB1C52F8
:10AF00000E493BF075F803B0F0BD3C26642591FB7B
:10AF1000F6F406FB1411019194FBF5F105FB1144C5
:10AF200093FBF6F2009406FB123392FBF5F705FB58
:10AF30001722E5E730700500A65C0500AE5C050051
:10AF4000062A10B50B46044611461ED142699A42A4
:10AF500004D1E06BBDE810400DF0BBB882699A42A5
:10AF600001D10521F5E78268934201D10421F0E780
:10AF7000C26893420ED194F89410C06B31B1012194
:10AF80000DF0A7F8002384F8943010BD0DF0A1F85F
:10AF90000123F8E702699342F7D10321D9E70A4672
:10AFA0000146406CFFF7CCBF08B542684B689A4237
:10AFB0000AD15AB10968006845F00AF8B0FA80F081
:10AFC000400980F0010008BD0020FAE70120F8E701
:10AFD00070B586B0C16B00F14006044668460DF0BE
:10AFE00047F869463046FFF7DFFF0546684644F0FC
:10AFF00077FC75B1E16B68460DF03AF8694630466A
:10B0000044F0ECFC684644F06BFC216CE0693AF0DB
:10B010007DFFE16B684604F170060DF031F869467A
:10B020003046FFF7C1FF0546684644F059FC75B14C
:10B03000E16B68460DF024F86946304644F0CEFCDA
:10B04000684644F04DFC216F206A3AF05FFFE16BE7
:10B05000684604F158060DF003F869463046FFF7DC
:10B06000A3FF0546684644F03BFC55B1E16B6846DA
:10B070000CF0F6FF6946304644F0B0FC684644F0F8
:10B080002FFCE06B94F894500DF002F8854204D048
:10B09000E06B0CF0FDFF84F89400E06BD4F88C506A
:10B0A0000CF0F9FF854207D0E06B0CF0F4FFC4F818
:10B0B0008C002046FFF7FAFEE06BD4F888500DF0C4
:10B0C00005F8854207D0E06B0DF000F8C4F8880061
:10B0D0002046FFF7EBFE94F89430606A33B31649CC
:10B0E0003AF0ADFF28F0B2FBD4F89030A0F58060C4
:10B0F000984217D394F83830E06AABB10F4939F071
:10B10000B6FE94F8383083F0010384F83830D4E97F
:10B1100022329A42A4BF002384F8943028F096FB90
:10B12000C4F8900006B070BD0549E8E7054906B0CF
:10B13000BDE870403AF083BFB0570500E05D050000
:10B14000EC5D0500A8570500F8B5084C06465625E5
:10B15000D4E90017304644F0E7FC20B1013D04F18A
:10B160000804F5D1024F3846F8BD00BF406605001F
:10B170002060050008B533F03FF9BDE8084029F02C
:10B18000A3BF000010B50C4B03600446806E34F082
:10B19000A5FBFFF7EFFF2AF035FF04F14C0044F068
:10B1A0009FFB04F1340044F09BFB04F11C0044F0CD
:10B1B00097FB204610BD00BFFC68050010B5044693
:10B1C000FFF7E0FF20466C2144F081FA204610BDD5
:10B1D0002DE9F0436A4B036000F124030025C361AD
:10B1E00000F13C030126C0E90D3500F1540389B09C
:10B1F000C0E9133506718161056280F8245080F83A
:10B200003C5080F854500446FFF7B4FF29463AF00A
:10B2100087FF5C4FA06029465B4B48F28E022BF003
:10B22000C3FC3B88A068294648F289022BF087FCC2
:10B23000564AD4F80890111F04A8029044F08DFBE0
:10B24000029B4FF00408CDF80C8002A81D71FFF797
:10B250007BFF014648463AF0F2FE02A844F040FB6C
:10B260006FF03B032A462946A06800932B462AF03C
:10B270003FFAFFF77FFF29463AF052FF3146E06080
:10B280003AF0F8FED4F80C9033F0B6F833F0BAF890
:10B29000014648462AF023FCE0683D493AF0CFFEDB
:10B2A000E06831463AF023F90A232A462946E06845
:10B2B00000932B462AF01CFAFFF75CFF29463AF070
:10B2C0002FFF314620613AF0D5FE434648F289020D
:10B2D000294620692BF033FCD4F8108033F08CF829
:10B2E00033F090F8014640462AF0F9FB20692949DD
:10B2F0003AF0A5FE206931463AF0F9F83C232A4697
:10B300002946206900932B462AF0F2F9FFF732FF15
:10B31000294636F09FFB14226061C8212AF096FB73
:10B320006FF009036069009329462B4605222AF035
:10B33000DFF96069294640F2214329222BF0FFFB07
:10B340007B886069292231462BF0F9FB60694FF454
:10B35000FA7136F009FC60692946642236F01EFC59
:10B3600060692A46294636F051FB23460322142100
:10B37000094834F06DFAA066204609B0BDE8F083B4
:10B38000FC6805003A6605002002002028600500E0
:10B390002960050034600500AB8C000070B586B0F4
:10B3A000816900F11C05044668460DF0D5FF694629
:10B3B0002846FFF7F9FD0646684644F091FA96B133
:10B3C000A16968460DF0C8FF6946284644F006FBAF
:10B3D000684644F085FA2846A668FFF7B5FE0146A0
:10B3E00030463AF02CFEA169684604F134060DF0AF
:10B3F000BAFF69463046FFF7D7FD0546684644F078
:10B400006FFA75B1A16968460DF0ADFF6946304627
:10B4100044F0E4FA684644F063FA616BE0683AF09D
:10B4200075FDA169684604F14C060DF0A3FF69465D
:10B430003046FFF7B9FD0546684644F051FA75B14C
:10B44000A16968460DF096FF6946304644F0C6FA99
:10B45000684644F045FAE16C20693AF057FDA0696E
:10B46000656E0DF08EFF854216D0A0690DF089FF44
:10B470000022606601B2606936F0C8FA636E6069E6
:10B480005A2BDABF054B1B88F8232922012106B06D
:10B49000BDE870402BF053BB06B070BDF0680500EE
:10B4A00008B532F0A9FFBDE8084029F00DBE000044
:10B4B00010B5084B03600446C06B34F00FFA0F213F
:10B4C000606910F04DF9FFF7EBFF2AF09BFD204675
:10B4D00010BD00BF4469050010B50446FFF7E8FF42
:10B4E0002046402144F0F3F8204610BD052903D141
:10B4F000437F0BB1002303710120704738B5037FF0
:10B500000446FBB128F0A2F9A168228BB4F91850C7
:10B51000401A4FF47043B3FBF2F2904212D993FBFE
:10B52000F5F30B44A360E37E2069013BDBB2E376D5
:10B5300033B9A37EE3765A21BDE838400EF018BD3A
:10B540001E21F9E738BD0000F0B585B016460D465E
:10B5500003930746FFF7A4FF00213AF0E1FD039BA8
:10B5600048F28E02002104462BF01EFB0B4B48F2E2
:10B5700089021B88204600212BF0E1FA394620463B
:10B580003AF0C4FC9DF82830009320460023324650
:10B5900029462AF0ADF8204605B0F0BD3A6905000D
:10B5A0006A4BF7B5002501270360694B8361C0E949
:10B5B0000412C0E90255077185830446FFF770FF46
:10B5C000294635F0E5FB634E20624464206A31462B
:10B5D00029F0DEFE206A4FF48772294635F08AFB97
:10B5E000206A872135F0ADFB206ADC22282135F066
:10B5F00091FCB4F91810206A35F0AEFBD222114646
:10B60000206A2AF023FA3946206A35F0A3FC276A1B
:10B61000FFF746FF2B4601460095384602222AF0E6
:10B6200067F83723216A009302224B4B4B48FFF700
:10B630008BFF4B4BA0620D22014600954948FFF756
:10B6400083FFFFF72DFF294636F0EEFA606244646F
:10B65000606A314629F09CFE2B46606A2C222946FE
:10B660002BF088FA606A50212AF040FA2B46022219
:10B67000D4E9090100952AF03BF8FFF711FF2946AC
:10B6800038F006FCE0624464E06A314629F080FE4E
:10B69000E06A322273212AF0D9F9E76AFFF700FF46
:10B6A0002B4604220146009538462AF021F8E06A2C
:10B6B0002D4938F068FBA17EE06A013989B238F083
:10B6C000B7FBE06A294638F0C9FBE06A274938F041
:10B6D0004BFB2946E06A3AF023FDA27E2063244911
:10B6E0003AF086FC2B462A46D4E90B10009529F047
:10B6F000FFFFFFF7D5FE294636F096FA60634464F3
:10B70000606B314629F044FE606B322273212AF0CF
:10B710009DF9666BFFF7C4FE2B4606220146009595
:10B72000304629F0E5FF2946606B3AF0F9FC1149F3
:10B73000A0633AF084FC2346032214210E4834F01F
:10B7400087F8E063204603B0F0BD00BF4469050000
:10B75000780004016DB80000B801002014690500EC
:10B76000EC010020186905001C69050071CC05007A
:10B770002E690500A8570500AB8C0000072A10B5FC
:10B78000044607D8072A44D8DFE802F0244344439C
:10B7900043434944102A3CD1006A884209D135F01C
:10B7A000F4FB2E4920830246A06ABDE810403AF01F
:10B7B0001FBCE06A88422CD138F030FC0130C2B2A4
:10B7C000A276206B26493AF013FC206BBDE81040AE
:10B7D0002AF028B9436A8B421BD128F037F8E16878
:10B7E00091B1401AB0F5406F0ED24FF47041B1FBE9
:10B7F000F0F109B2206A218335F0AEFAB4F91820CD
:10B800001649A06A3AF0F4FB28F020F80123E06022
:10B81000637710BD436A8B42FBD10023F8E7436B8B
:10B820008B42F6D1037F83F001030377806B63B112
:10B830000C493AF004FC606910210FF091FF28F0E8
:10B8400005F80123A060E376E3E707493AF0F7FB48
:10B8500060690F21BDE810400FF082BF3569050017
:10B860002E690500B0570500A85705000A46014695
:10B87000406CFFF783BF08B532F0BEFDBDE808405D
:10B8800029F022BC10B5044B03600446FFF7F3FF18
:10B890002AF0B8FB204610BD2C6A050010B50446FE
:10B8A000FFF7F0FF2046242143F011FF204610BD92
:10B8B000F7B5484B036001268160067104460F46C8
:10B8C000FFF7D9FF00213AF02BFC0025424B4349FA
:10B8D000E060019300950B2332463AF089FB2B463A
:10B8E00032462946E068009529F002FFFFF7C3FFC2
:10B8F00029463AF015FC2B460C22E16820610095A0
:10B9000029F0F6FE206931463AF0F6FB206931460F
:10B910003AF0B0FB2069F0212AF0E1F838460EF049
:10B92000CEFA054630B12E4920693AF088FB204610
:10B9300003B0F0BD2B4920693AF081FBFFF79BFF74
:10B94000294636F071F960614464606932227321DE
:10B950002AF07CF82B46042260690095294629F0DC
:10B96000C7FE2149606929F013FD204B60691B88DF
:10B97000292229462BF0E3F8294660693AF0D0FBEA
:10B980001B49A0613AF05BFBFFF775FF294636F0D3
:10B990004BF9E0614464E069322273212AF056F8E1
:10B9A000E06900952B460622294629F0A1FE4FF0BA
:10B9B000F8032922E06929462BF0C1F80A49E06919
:10B9C00029F0E6FC2946E0693AF0AAFB0949206221
:10B9D000ABE700BF2C6A0500CB5805005C69050089
:10B9E00080690500B369050027BA0000206A0500D8
:10B9F000106A0500196A050010B543698B420446B8
:10BA000007D1062A05D180680EF062FA002323715F
:10BA100010BDE3698B42FBD1062AF9D1A068BDE8CD
:10BA200010400EF063BA0A460146406CFFF7E4BFCF
:10BA3000012A034602D1016000207047022A04BF98
:10BA4000D1E90001C3E90001F6E710B583680446B7
:10BA500013B1032201469847204610BD2DE9F04757
:10BA6000002586B0DFF854A0DFF8549085600646C4
:10BA70008846856104466F46CDE9028502AB93E8AE
:10BA8000030087E8030094E8030083E8030097E8D5
:10BA90000300A268049284E80300E268C4F808A0E6
:10BAA000C4F80C90184605921034FFF7CEFF1DB174
:10BAB000304606B0BDE8F0870125DDE731BA000069
:10BAC00029BB00002DE9F04F1646164A95B00B46EB
:10BAD0003021054601FB0622002408AF02EBC40119
:10BAE00003C907EBC40C0134062C8CE80300F5D124
:10BAF000D3E90389D3E905AB94209B68079343F00E
:10BB0000F7FDCDE903B7CDE9019A079BCDF8008099
:10BB10000222F1B20446FDF709FA28462C6015B05E
:10BB2000BDE8F08F8C6A050010B50446D1E900121B
:10BB3000FFF7C8FF204610BD38B505460B4B45F84A
:10BB4000383B044632F058FC29F0BEFA2AF05AFA83
:10BB50002846FEF716FA04F12000FFF776FF04F1FD
:10BB60001000FFF772FF204638BD00BF4C6A050089
:10BB700010B50446FFF7E0FF20463C2143F0A7FD47
:10BB8000204610BD38B50546074B45F81C3B04461A
:10BB900032F032FC29F098FA2AF034FA2846FFF7FE
:10BBA000CBFF204638BD00BFF46A050010B504463F
:10BBB000FFF7E8FF2046582143F089FD204610BDDD
:10BBC0002DE9F04F89B00361129B43610D46139B31
:10BBD00021490160012604460671C0E902528361D1
:10BBE000014600F11C09684692F82D7004F12C08FA
:10BBF000FFF734FF194B84F820606562E36184F835
:10BC000028706E46454604F14C0A4FF0000BB368AD
:10BC1000C5F808B03BB10222314628469847F36880
:10BC2000EB60B368AB601035554506F11006EED1F8
:10BC30000023E36408EB071109F1380084F8507021
:10BC4000FEF7E4F904A8FFF700FF6846FFF7FDFEE2
:10BC5000204609B0BDE8F08FF46A05004C6A050083
:10BC6000F7B5056B0446002D3BD1042927D00529E3
:10BC700040F09C8090F83400F8B104F13806294671
:10BC80003046FCF737FCA0680221FCF7F3FB94F880
:10BC90003430013BDBB204F1100101EB031184F8F5
:10BCA000343001A8FEF7B2F9019901953046FCF74E
:10BCB00021FC01A8FEF765F9012003B0F0BD90F862
:10BCC0003450002DF8D100F1380629463046FCF7F3
:10BCD00011FCA0680121FCF7CDFB94F8343001334E
:10BCE000D8E7012D41D1022920D003295ED190F857
:10BCF00034000028E1D004F1380600213046FCF77A
:10BD0000F9FBA0680021FCF7B5FB94F83430013B47
:10BD1000DBB204F1100101EB031184F8343001A807
:10BD2000FEF774F9002301990193BFE790F834609E
:10BD3000002EC1D100F1380731463846FCF7DAFB56
:10BD4000A0683146FCF796FB94F834300133DBB23F
:10BD500004F1100101EB031101A884F83430FEF75F
:10BD600055F9019901963846A1E706291ED190F8A8
:10BD70003430B3FA83F35B0900F1380580F83430CE
:10BD800000212846FCF7B6FBA0680021FCF772FBF7
:10BD900094F8341004F1100303EB011101A8FEF72D
:10BDA00035F9002301990193284680E7002084E7B4
:10BDB00008B51C30FFF754FF08BD08B532F01CFB76
:10BDC000BDE8084029F080B913B50B46044601913F
:10BDD000102200212AF099FE019B20461122002109
:10BDE0002AF093FE019B2046122200212AF08DFEAC
:10BDF000019B13220021204602B0BDE810402AF02A
:10BE000084BE10B504460F2180690FF0A9FC60695B
:10BE10000EF0EDF8206B18B12AF0D4F8002323635C
:10BE200010BD00002DE9FF4798460E9B03620F9B53
:10BE30004362012380F828300446164689460C9F49
:10BE4000FFF7BBFF002137F0BBF92060054632F059
:10BE5000D3FA32F0D7FA039032F0CEFA32F0E2FAA7
:10BE6000039902462846002529F0F0FD2B46292299
:10BE7000206829462AF063FE20682946FFF7A4FFC0
:10BE800020682B46142229462AF03FFE2B463022FA
:10BE9000206829462AF039FE2946206837F090F9B3
:10BEA000994B60601B88292229462AF048FE606869
:10BEB0000A21FFF789FF60680523142229462AF02A
:10BEC00024FE2B466068302229462AF01EFE3222CC
:10BED0002946606829F0C9FBD4F804A032F08CFA36
:10BEE00032F090FA039032F087FA32F09BFA32384F
:10BEF00002B20399504629F0A9FD6068022137F08B
:10BF0000C1F92B462A4660680095294637F0CFF9DB
:10BF1000294620683AF004F942469DF834307B49BE
:10BF200082463AF065F810230322009329462B46F7
:10BF3000504629F0DDFB294620683AF0F1F8744BB1
:10BF400048F289021B88294680462AF0F8FDB9F19B
:10BF5000000F2ED16F4940463AF071F84046042157
:10BF60003AF088F84046B42129F0B9FD1023009337
:10BF7000002319460122404629F0BAFB00216068DF
:10BF80003AF0CEF8012180463AF074F832F034FAF3
:10BF900032F038FA143801B2404629F0A0FD042FDF
:10BFA0001DD03146404639F0B1FF204604B0BDE80F
:10BFB000F0874946404639F0A9FF404639F0AAFAD1
:10BFC0000A2145F071F8202528B100F8015B0A210B
:10BFD00045F06AF8F8E7404639F0EAFCBEE76068E9
:10BFE0006C2129F083FD40464B493AF028F86068FF
:10BFF00000213AF095F800252B460C228146414657
:10C00000009529F075FB012148463AF033F832F0EB
:10C01000F3F932F0F7F9143801B2484629F05FFD20
:10C020003146484639F072FF2946206835F0FCFD5C
:10C03000A0604464A068394929F0AAF94C22A0689C
:10C04000114629F003FD2B463A46A0680095294683
:10C0500029F04EFB2946A0683AF062F83049606149
:10C0600039F0EDFF2F4BA0681B88292229462AF0C2
:10C0700066FD2946206835F0D7FD206144642069BB
:10C08000264929F085F94C222069114629F0DEFC69
:10C090002B46052220690095294629F029FB2946CF
:10C0A00020693AF03DF82049E06139F0C8FF4FF0CF
:10C0B000F8032922206929462AF041FD29462068F3
:10C0C00035F0B2FDE0604464E068144929F060F99D
:10C0D0004C22E068114629F0B9FC2B460622E068A4
:10C0E0000095294629F004FB2946E0683AF018F843
:10C0F0000E49A06139F0A3FF0D4BE0681B8829228F
:10C1000029462AF01CFD50E75C6B05000C6B05000E
:10C110005E6B0500126B05001F6B050099C10000E6
:10C12000326B0500606B0500366B05003A6B05004D
:10C13000626B05001FB50023CDE90212CDE9003383
:10C14000034A04490446FFF76DFE204604B010BDC3
:10C150003E6B0500126B0500062A38B504460D46F5
:10C160000BD1406A0DF043FFA3689D4206D1206ABF
:10C170000BF0B8FC002384F8283038BD23699D42B9
:10C1800003D1206A0BF0C9FCF4E7E3689D42F1D1CA
:10C19000206A0BF0DEFCEDE70A460146406CFFF733
:10C1A000DBBF10B50446FFF708FE29F02BFF204641
:10C1B00010BD38B50568044635B12846FFF7F1FFD4
:10C1C0002C21284643F083FA204638BD10B50B4B8E
:10C1D00003600446C06B33F081FB60690DF007FF1C
:10C1E0000F21A0690FF0BCFAFFF7E7FD29F00AFF65
:10C1F00004F12000FFF7DDFF204610BD6C6B050049
:10C2000010B50446FFF7E2FF2046402143F05FFAF5
:10C21000204610BDF0B589B004460E98096806683E
:10C220000F98126807781B7807912C2006920593C7
:10C2300043F05EFA119B0393109B07990096CDE99A
:10C240000173DDE905320546FFF7ECFD2046256068
:10C2500009B0F0BD37B504462C20CDE9002143F0EC
:10C2600047FADDE900210546FFF764FF2046256017
:10C2700003B030BD10B50468016044B12046FFF73B
:10C2800090FF20462C21BDE8104043F020BA10BD9D
:10C2900037B5044600212030FFF7ECFFA0680621E7
:10C2A000FCF7E8F8FFF789FD002129F02BFC054693
:10C2B00032F0A2F832F0A6F8019032F09DF832F098
:10C2C000B1F801990246284629F0C0FB00210B462F
:10C2D000292228462AF033FC012384F8393003B0A0
:10C2E00030BD10B5044690F82410C06809F0ACFDCC
:10C2F000206B18B129F066FE002323632046BDE8B9
:10C300001040FFF7C5BF10B50B46002209681A6040
:10C310000446FFF7AFFF204610BD00002DE9F04FA7
:10C32000A5B01E46514B03602F9B8361C0E90212EA
:10C33000309B2E9DC3614FF48031002381624FF00A
:10C340000108EF31C0E90B139146036280F82530F4
:10C3500080F82630C0E90465044680F80480A0F81F
:10C360003880104609F089FD494609A809F05EFCAD
:10C370009DF825A004F1200B08AFBAF1000F60D0A2
:10C380009DF8243084F8243009A809F0D4FD0590E4
:10C3900009A809F0BCFDCDE90608484609F080FD72
:10C3A00023AB06AA0890009305A907AB04A8CDE922
:10C3B00002650197FFF72EFF04A95846FFF7A3FF78
:10C3C00004A8FFF7F6FE84F82580309B012B2DD1C1
:10C3D0002F9810210FF0C4F9239B042B40D128463D
:10C3E0000DF0F4FDFFF7E9FC00213AF049F80323D2
:10C3F0002063902200212AF088FB1D4B206B1B88B4
:10C40000992200212AF09BFB0123206B942200211A
:10C410002AF07BFB206B022204F1280139F0C4FFD3
:10C4200027F014FA0023606384F83830234603228F
:10C430001421104833F00CFAE063204625B0BDE823
:10C44000F08F2A4631463846FFF704FF39465846F2
:10C45000FFF759FF3846FFF7ACFE84F825A0B4E794
:10C46000232128460DF084FDBCE700BF6C6B05005E
:10C470005A6B0500AB8C00002DE9F0410429DAB0BD
:10C48000044600F0848005292DD0032940F0BA80AD
:10C4900090F82550E5B190F82420C16824A809F04F
:10C4A0006FFC9DF89160E16894F824203FA809F0A2
:10C4B00048FC94F82410E06884F8266009F0C4FC75
:10C4C00056B19DF8903084F824302046FFF7E0FE06
:10C4D00028465AB0BDE8F0819DF8FD30002BF4D01D
:10C4E0009DF8FC30EFE70023ADF8FC30599390F84D
:10C4F0002530C16873B190F8242004A809F040FCED
:10C500006C2204A93FA843F095FD9DF8FD502DB97C
:10C510000125DDE704A809F089FBF1E79DF8FC108F
:10C5200084F82410E06809F0D7FB04F12007012308
:10C5300084F82530064600213846FFF79BFE02218D
:10C54000A068FBF797FF3FA809F0F5FC23903FA8F0
:10C5500009F0DDFC01362290E068219609F0A0FC8C
:10C56000636903932369029320AB019359AB209035
:10C57000009322AA21AB23A924A8FFF74BFE24A9EC
:10C580003846FFF7C0FE24A8FFF713FEA0E70023FC
:10C59000ADF8FC30599390F82530C16873B190F82C
:10C5A000242004A809F0CDFB6C2204A93FA843F085
:10C5B00041FD9DF8FD502DB9257189E704A809F0CA
:10C5C00035FBF1E79DF8FC1084F82410E06809F0D1
:10C5D00083FB4FF0010804F120070646002138468E
:10C5E00084F82580FFF746FE4146A068FBF742FF2E
:10C5F0003FA809F0A0FC23903FA809F088FC46441E
:10C600002290A9E7002563E710B5C26903460C46EE
:10C6100082B190F838203AB9012905D180F8381054
:10C62000FFF7EFFB012010BD032C07D11846FFF7E1
:10C6300058FEF7E7BDE81040FFF71EBF0020F2E705
:10C6400070B5C369012BC0B004463DD1036B43B341
:10C6500027F0FCF8054631F0CFFE31F0D3FE064658
:10C66000606B2D1A31F0C8FE31F0CCFE4FF4E05370
:10C67000B3FBF0F0B5FBF0F5751B002D09DC0023D2
:10C680002371236A93F8283003B12379237140B0D2
:10C6900070BD206BA585022204F1280139F084FECB
:10C6A000EFE790F83920002AEBD0D0E904120371AB
:10C6B00025A8FFF7CFFD25A904F12000FFF723FEF1
:10C6C00025A8FFF776FDDCE790F83930002BD8D0AD
:10C6D000002380F8393090F82420C16825A809F09B
:10C6E00014FB9DF8953043B9E16804A809F09EFA5F
:10C6F0006C2204A925A843F09DFC9DF8943084F891
:10C7000024309DF895300BB984F8253004F12006CB
:10C7100000213046FFF7AEFD94F82630002B2ED0D6
:10C720000221A068FBF7A6FE94F825304BB394F8DD
:10C730002410E06809F0D0FA054625A809F0FBFBB3
:10C74000209025A809F0E3FB01352190E0682295AF
:10C7500009F0A6FB636903932369029323AB01935A
:10C760003FAB2390009321AA22AB20A924A8FFF776
:10C7700051FD24A93046FFF7C6FD24A8A1E70121F9
:10C78000CFE7D4E9041224A8FFF764FDF1E708B568
:10C7900031F032FEBDE8084028F096BC73B505467E
:10C7A0000A4B45F8083B044600F11C06B54206D08A
:10C7B00055F8043B019301A82CF07FFBF6E7FFF747
:10C7C000E6FF29F01FFC204602B070BDA06B0500FB
:10C7D00010B50446FFF7E2FF2046A82142F077FF9C
:10C7E000204610BDF8B5DDF818C002EB81050CEB52
:10C7F000830600EBC50500EBC606AC6AB76ABC420F
:10C8000016D1624501D1994212D095F824707FB9B2
:10C810006200AA62D0F8A43006491A44C0F8A420E5
:10C82000C06939F0E5FB0120B76285F82400F8BD46
:10C830000020FCE7846B050010B5002A029C01DB98
:10C84000A24203D100290FDB99420DD004EB8304EF
:10C8500000EBC40402EB810200EBC202A36A936204
:10C860000023A362012010BD0020FCE72DE9F3475F
:10C87000DFF88080DFF880900746002607EBC60AC5
:10C88000C6F38F04DAF8282006F00305BAB149464A
:10C89000684644F0E9FB6B46386A2A4621463BF07D
:10C8A000DDFEDAF82830386A082B0AD8082B0ED8B3
:10C8B000DFE803F00F0D1A0D1A0D0D0D1C00434695
:10C8C000EAE7202B14D0402B12D0102B0ED00523DA
:10C8D00000E001232A46214601363CF015F8102ECF
:10C8E000CCD102B0BDE8F0870223F3E70323F1E7E0
:10C8F0000423EFE771CC0500655A050070B50023ED
:10C9000090B006461C4606EBC302926A2AB910AAEA
:10C9100002EB8402013442F8403C0133102BF2D187
:10C9200024B344F0F3F8054644F0F0F8B5FBF4F313
:10C9300004FB135510AB03EB8505642155F8403C0F
:10C9400090FBF1F403F0030223F00303134404FB10
:10C950001100592806EBC303D4BF0222042230463B
:10C960009A62FFF783FF012010B070BD2046FBE7FD
:10C970002DE9F043564B574F0446012685B08022DF
:10C9800000210025067140F8243B43F069FCC4F8FF
:10C99000A450FFF7FCFE29463BF0FAFE04F108051F
:10C9A000206247F2BD4828462CF0EEF92846424660
:10C9B00039212CF023FB2846032230212CF0DAFA0F
:10C9C0002846FF222C212CF05DFB3A88284629219D
:10C9D0002CF014FB28461D2210212CF0CBFA7A886B
:10C9E000284648F289012CF009FB2A46F1B2206A58
:10C9F00001362AF065F8062E05F1040507F1040753
:10CA0000D1D1206A04213BF07FFE206A04213BF053
:10CA1000D7FD0025A8461FFA85F9206A3C22494621
:10CA20003BF02EFF04EBC5070026C7F82880B1B203
:10CA3000206A039101234A463BF066FF01360399C1
:10CA4000206A01234A463BF02CFF042E07F1200701
:10CA5000EBD10135042DDED1002301261946052234
:10CA6000206A009628F044FE0021206A29F0D4FABA
:10CA70002046FFF743FF2046FFF740FFFFF787FE02
:10CA8000002139F04DFBE061054631F0B5FC31F095
:10CA9000B9FC0146284629F022F8E069072138F060
:10CAA00026FD002319463246E069CDF8008028F0C3
:10CAB0001FFEE069314639F01FFBE069D4F8A4207D
:10CAC000054939F095FA204605B0BDE8F08300BF6E
:10CAD000A06B0500B86B0500846B050000232DE9F1
:10CAE000F74F8846044619461A1D04EBC20201336B
:10CAF000102B1171F8D1A8F10203032B00F2E18091
:10CB0000DFE803F0023D71A70125002704F12808A2
:10CB1000002605F1FF3A58F83530EBB152464FF098
:10CB2000FF3958F8323023B9511E91460AB30A46EC
:10CB3000F7E70095334631462046FFF753FE0028BD
:10CB400018BF0746009533464A4631462046FFF750
:10CB500073FE002818BF07460136042E08F120088E
:10CB6000D9D10135042DD1D12FB9012003B0BDE8B1
:10CB7000F08F9946E6E72046FFF7C0FEF5E702256D
:10CB8000002704F12809002605F1010B59F835307A
:10CB9000FBB15A464FF0FF3A59F8323033B9032A05
:10CBA00002F1010392461CD01A46F5E70095334680
:10CBB00031462046FFF716FE002818BF07460095AD
:10CBC0003346524631462046FFF736FE002818BF4E
:10CBD00007460136042E09F12009D7D1013DD0D2F4
:10CBE000C2E7C246EBE70125002704F128084FEA17
:10CBF000451A002605F1FF3B58F80A30F3B15946B3
:10CC00004FF0FF394B0158F8033023B94A1E8946CB
:10CC1000E9B11146F6E700962B4632462046FFF76B
:10CC2000E1FD002818BF074600962B4632464946CC
:10CC30002046FFF701FE002818BF07460136042EE4
:10CC400008F10808D8D10135042DCED18CE79946DA
:10CC5000EAE70225002704F128084FEA451A0026D2
:10CC600005F1010B58F80A3003B359464FF0FF396C
:10CC70004B0158F8033033B9032901F10103894608
:10CC80001CD01946F4E700962B4632462046FFF7A3
:10CC9000A9FD002818BF074600962B463246494694
:10CCA0002046FFF7C9FD002818BF07460136042EAD
:10CCB00008F10808D6D1013DCDD255E74FF0030960
:10CCC000EAE7002052E708B531F096FBBDE80840DE
:10CCD00028F0FAB910B5084B03600446406A32F0F8
:10CCE000FDFDFFF7F0FF29F08DF9E0680F210EF050
:10CCF00037FD204610BD00BF4C6C050010B5044642
:10CD0000FFF7E8FF2046282142F0E1FC204610BD55
:10CD100037B583685D686A1E012A0446006915D824
:10CD20000D4939F08CF9032D96BF0C4B0C4953F883
:10CD30002510A06939F083F90A2300932169A069BD
:10CD400000230D2228F0D4FC03B030BD1A7A054927
:10CD500039F04EF9E7E700BF82570500306C050057
:10CD600071CC050035690500006A11B1024939F03E
:10CD700066B90249FBE700BFCC6B0500D16B05002B
:10CD8000F7B5012303714E68454B0360C0E90212F9
:10CD9000371E0446154618BF0127FFF794FF0021F0
:10CDA00039F0BEF93F4B206148F28E02002129F094
:10CDB000FBFE2069002E6CD03B4B1B8848F2890299
:10CDC000002129F0BCFE3949206939F038F96FF0AB
:10CDD0002703009300231A461946206928F088FC8F
:10CDE000FFF771FF002139F09BF93149606139F09B
:10CDF00026F96FF013030A22D4E9041000930023EC
:10CE000028F076FCFFF75FFF002139F089F9294B04
:10CE1000A0611B8848F28902002129F090FE264972
:10CE2000A06939F00CF90A230D222169A069009349
:10CE3000002328F05DFCFFF746FF002134F0F4FEEC
:10CE4000E0614464E069322128F050FE1B49E0694A
:10CE500028F09EFA00210B46E0690091052228F097
:10CE600047FC0021E06939F05BF939462062204631
:10CE7000FFF77AFF1EB1102128460EF071FC234601
:10CE8000032264210E4832F0E3FC6062204603B0C6
:10CE9000F0BD0C4B48F289021B88314691E700BF78
:10CEA0004C6C0500B8010020406C0500825705005D
:10CEB000D76B05002E6C0500E66B050031CF000036
:10CEC000AB8C0000426C0500062970B504462AD1DF
:10CED00080684568BDB90FF053FCA36859680039F4
:10CEE00018BF01212046FFF73FFFE06810210EF038
:10CEF00037FC0D4B20691B88BDE8704048F2890261
:10CF0000002129F01CBE0FF044FCA36859680039C9
:10CF100018BF01212046FFF727FFE0680F210EF020
:10CF20001FFC024BE6E770BD406C0500426C05003B
:10CF3000406CFFF7C9BF08B531F05EFABDE80840A4
:10CF400028F0C2B80A4B10B503600446FFF7F3FFA0
:10CF500029F058F8FFF7EFFF00210B46292229F0AE
:10CF6000EEFDA0680F210EF0FBFB204610BD00BFB8
:10CF7000746C050010B50446FFF7E4FF20462C2131
:10CF800042F0A5FB204610BDF8B590F82850174B8D
:10CF900004460DB11D88164B1F88FFF7CCFF2B46AA
:10CFA0002922002129F0CBFD60693B4648F2890225
:10CFB000002129F0C4FD04F11C062834A64214D037
:10CFC00030683B462922002129F0B9FD30682B4604
:10CFD00042F22902002129F0B2FD56F8040B3B462B
:10CFE0003922002129F0ABFDE8E7F8BD686C0500A7
:10CFF0006A6C050010B50369032B0446006A08D16A
:10D0000000212AF065FA0021606ABDE810402AF08C
:10D010005FBA022B0CBF002120212AF059FA2021EF
:10D02000F2E70000F7B50446414B236000250323D7
:10D030000E460121C4E9026210462361217184F881
:10D04000285009F0B5F8FFF776FF294639F068F85F
:10D05000384B606148F28E02294629F0A5FD364919
:10D06000606938F0ECFF00952B462A462946606936
:10D0700028F03EFB04F11C0504F12807BD4211D045
:10D08000FFF759FF002128F03DFD0A2228600F21FB
:10D0900028F0DCFC55F8040B02233022002129F093
:10D0A00034FDEBE7052700256169206A009700231E
:10D0B0000D2228F01DFBD4E9070100956FF007034E
:10D0C000102228F015FB0823D4E90810132200953C
:10D0D00028F00EFB2046FFF78DFF2046FFF754FF98
:10D0E000FFF729FF294639F01BF83946A06138F0CF
:10D0F000C1FFF022A069114628F0A8FC2A46A069C9
:10D10000294628F0B2FAA0690C4938F098FFA069C6
:10D11000012128F006F9A36909495C64A06928F097
:10D1200037F9304610210EF01BFB204603B0F0BD4E
:10D13000746C050054020020646C050071CC05007D
:10D14000CDD1000010B5036893F8282004461AB129
:10D15000D3E9030109F02CF82068BDE81040FFF77F
:10D1600049BF13B5022901900FD10369032B06D1E2
:10D170000223036101A8FFF7E5FF01200FE0022B66
:10D180004FF00104F9D10461F4E7032906D10369E2
:10D19000012BEDD0022BF0D10161EBE7002002B0B2
:10D1A00010BD10B590F82830044683F0010380F8D4
:10D1B0002830FFF7E9FE94F828302BB12169E068A8
:10D1C000BDE8104008F0F4BF0121F8E7062902D1BC
:10D1D000406CFFF7E6BF704708B531F00DF9BDE8C8
:10D1E000084027F071BF000010B5044B03600446EF
:10D1F000FFF7F2FF28F006FF204610BD986C0500EF
:10D2000010B50446FFF7F0FF20464C2142F05FFACC
:10D21000204610BD2DE9F74F05460C9FDFF898A179
:10D22000012005F1300628715F482860C5E9023702
:10D2300030460C4601F07AFDFFF7CEFF4FF00003B9
:10D240002922002129F07BFC304687F82E4001F08E
:10D2500071FDFFF7C1FF002135F0B2FF0023064644
:10D2600019462C2229F086FC042314220021304682
:10D2700029F04BFC002319463022304629F045FCAA
:10D2800000221146304628F0F0F931F0B5F831F0BF
:10D29000B9F8083801B2304628F021FC31F0ACF87A
:10D2A00031F0C0F80146304628F020FC022130461B
:10D2B00035F0E8FFDDF8348005F1100405F1200BAE
:10D2C000D8F8083044F8043B002B64D000213046E5
:10D2D00034F0AAFC1323E0600122002129F015FCA0
:10D2E000324BE0681B882922002129F028FCE768DE
:10D2F00031F082F831F086F8083801B2384628F06B
:10D30000EEFBE068392128F0F1FBE068514628F097
:10D310003FF8E068002135F0B5FFE3685D64022264
:10D320000123E068002129F0F0FB0021E06838F0DB
:10D33000F7FE1F4B07461B8848F28902002129F09F
:10D34000FEFBD8F80010384638F079FE0521384643
:10D3500038F090FE0121384638F0C9F839213846B6
:10D3600028F0BDFB0023072219460093384628F019
:10D37000BFF900231946E06838F0D2FED8F804203F
:10D380000C49814638F034FE0023009313223946BD
:10D39000484628F0ADF95C4508F10C0890D12846C4
:10D3A00003B0BDE8F08F00BF986C05008E6C0500DF
:10D3B0008C6C0500C1590500EFD30000062A38B572
:10D3C000044610D100F1100300F1200253F8040BC1
:10D3D00050B1DD68A94207D101460122A068FBF7E0
:10D3E0001CF80023237138BD9342EFD1FBE70A46B6
:10D3F0000146406CFFF7E2BF08B530F0FDFFBDE825
:10D40000084027F061BE000037B50E4B03600446AC
:10D41000FFF7F2FF28F0F6FDA36C019323690BB927
:10D4200042F09CF904F10805636901A92846984770
:10D4300023691BB10322294628469847204603B09A
:10D4400030BD00BFBC6C050010B50446FFF7DCFF23
:10D450002046682142F03BF9204610BD2DE9F04FEF
:10D4600087B09A46DDE911834FF0000B9146012207
:10D470000271C0F810B07C4A0260044641710F4648
:10D4800093E8030004AD04F1080285E8030092E884
:10D49000030083E8030095E8030082E803009A682C
:10D4A0006169226113AEDA68C3F808B0D9606261BD
:10D4B0000FCE04F118050FC596E80F0085E80F00A0
:10D4C00004F14C054A463946C4F84880284601F024
:10D4D0002DFCFFF791FF5B462922594629F02FFBCF
:10D4E000B9F1010F02D9284601F024FCFFF784FFAF
:10D4F000002135F065FE0023054619462C2229F04F
:10D5000039FB0A2310220021284629F0FEFA0A23BB
:10D5100011220021284629F0F8FA0A2312220021BC
:10D52000284629F0F2FA0A2313220021284629F07E
:10D53000ECFA052314220021284629F0E6FA0023FC
:10D5400019463022284629F0E0FA3C220A212846D2
:10D5500028F08BF830F050FF30F054FF143801B24F
:10D56000284628F0BCFA30F047FF30F05BFF323835
:10D5700001B2284628F0BAFA0221284635F082FE88
:10D58000FFF73AFF002138F0CBFD5146834638F0D3
:10D5900056FD0121584637F0AAFFFFF72DFF0F2354
:10D5A00001460222584600930A2328F0A1F8FFF70B
:10D5B00023FF002138F0B4FD2C4B06461B8848F2AF
:10D5C0008902002129F0BBFA3046109938F037FD66
:10D5D0004FF000093046012137F089FF6FF0090351
:10D5E00059463046CDF80090102228F081F8DFF837
:10D5F00080B0A8EB8703DFF87C8003930DF14C0A21
:10D6000004F13806DAF800704146384643F0BCFDB4
:10D61000E8B10021284635F063FB3946306035F02B
:10D6200053FB9AF8043013B9306835F0E8FB3368DF
:10D630005C643068594627F0ABFE306801F08EF923
:10D64000039B4B4503D13068012135F0A9FB09F15B
:10D650000109B9F1040F0AF1080A06F10406D1D153
:10D66000204607B0BDE8F08FBC6C0500B06C05002B
:10D67000D9D6000071CC0500102A2DE9F8430446E4
:10D68000884621D1DFF84C90074600F13806002586
:10D69000B869494643F078FD78B13068804515D1C6
:10D6A0000121404635F07CFB637905EB8303A364DD
:10D6B0003B7F13B9306835F0A2FB0135042D07F12B
:10D6C000080706F10406E3D1BDE8F883002135F030
:10D6D00067FBEDE771CC05000A460146406CFFF799
:10D6E000CBBF000013B583681A7980F820205988D1
:10D6F0004184D9790446406989B3997979BB01217C
:10D700004FF0F803292229F01AFA2349A06938F0CA
:10D7100096FC94F820202069204938F069FC1423F5
:10D72000D4E9051000930D22002327F0E1FF638C5C
:10D73000E0684FF47A71B3FBF1F201FB12339BB254
:10D740000A21B3FBF1F3164938F052FC94F820108B
:10D750006069012202B0BDE8104034F057B9642A74
:10D7600007D101214FF4F853292229F0E8F90D4996
:10D77000CCE71B790F2B07D80B4B01211B882922E3
:10D7800029F0DDF90949C1E7094B01211B8829224C
:10D7900029F0D5F90749B9E748970500FA6C050063
:10D7A000016D0500D46C0500286D0500E26C0500D4
:10D7B0002E6D0500EE6C050008B530F01DFEBDE8CD
:10D7C000084027F081BC000010B5064B03600446FA
:10D7D000C06932F083F8FFF7EFFF28F013FC204612
:10D7E00010BD00BF386D050010B50446FFF7ECFF13
:10D7F0002046242141F06BFF204610BD73B5012562
:10D800000571574B03600B7980F820304B884384B7
:10D8100081600446FFF7D0FF002134F01BF90F228E
:10D820006061C82128F012F960696422002134F097
:10D83000B5F90A2600231A4619466069009627F0B2
:10D8400057FF60694FF47A7134F08EF960692A46A7
:10D8500047F6FF73002129F058F9424B60691B8895
:10D860002922002129F06BF96069FF232C22002175
:10D8700029F080F94FF0F80360692946292229F040
:10D880005EF92A4694F82010606934F0BFF8FFF77B
:10D8900093FF002138F044FC3349A06138F0CFFBFE
:10D8A000A069294637F023FE1423D4E905100D2280
:10D8B0000093002327F01CFFFFF77EFF002138F0C4
:10D8C0002FFC2A4B206148F28E02002129F06CF9CE
:10D8D00094F820202069264938F08AFB206900212D
:10D8E00037F005FE6FF03B03009300231A461946FC
:10D8F000206927F0FDFEFFF75FFF002138F010FCE4
:10D900001C4BE0601B8848F28902002129F017F9BE
:10D91000638CE0684FF47A71B3FBF1F201FB1233D0
:10D920009BB21549B3FBF6F338F062FBE068294679
:10D9300037F0DDFD5F2300930023E0681A461946A7
:10D9400027F0D6FE2346032241F288310B4831F0FE
:10D950007FFFE0612046FFF7C5FE204602B070BDA4
:10D96000386D05002A6D0500106D0500B801002016
:10D97000FA6C05002C6D0500016D0500AB8C0000F4
:10D9800013B5836816491A6882625B6803610446AE
:10D99000406938F02DFB6FF02703009300231A46EF
:10D9A0001946606927F0A4FE22690E4B9A4212D8EC
:10D9B0000D49606A38F01CFBA16AA0694FF4FA7344
:10D9C0005943E3689B68B1FBF3F109B202B0BDE8CB
:10D9D000104033F0C1B90549606A38F009FBEBE744
:10D9E000506D05009F860100546D05005F6D0500B8
:10D9F00008B530F001FDBDE8084027F065BB000028
:10DA000010B5064B03600446C06A31F067FFFFF7AC
:10DA1000EFFF28F0F7FA204610BD00BF906D05001B
:10DA200010B50446FFF7ECFF2046302141F04FFED1
:10DA3000204610BD2DE9F74F864B036000254FF0BF
:10DA40000108C0E9021280F80480056104460F460F
:10DA50009146FFF7CDFF294633F09AF92B46A06196
:10DA600029462C2229F086F87B4BA069B3F800B038
:10DA700029465B46992229F062F8A06929460223CB
:10DA8000302229F042F8A0692B464246294629F067
:10DA90003CF8724BA0691B889922414629F04FF847
:10DAA000A069C82133F098F8F022A069114627F048
:10DAB000CDFFA06929464FF4FA7233F02BFA2A46BB
:10DAC000A06900952B46294627F012FE39687B682D
:10DAD000A069A162CB1A23614FF4FA735943D9F8B4
:10DAE0000830B1FBF3F109B233F036F9FFF780FFEC
:10DAF000294638F015FB294660614EF2070348F2CB
:10DB0000890229F01CF8564B6069294648F28E02BA
:10DB100029F04AF8A26A6069524938F069FA6FF050
